:1008A60075A0FE1208C61208548F0BE50B60F7B44C
:1008B60001F4050AE50AC3940240EBE4F50A80E672
:03000B00020800E8
:0B080000C0E0C0D075D000C000C007F1
:10080B00758A18758CFC0509E50970020508C394F7
:10081B00F4E50894014029750800750900E50A7094
:10082B000DAFA07801EF08800123D8FDF5A0E50AF4
:10083B00B4010DAFA07801EF08800103D8FDF5A03E
:09084B00D007D000D0D0D0E0327B
:1008C6005389F0438901758A18758CFCC28DD28CC8
:0708D600D2A9D2AFC2B92282
:10085400E4F50C20B1107F141208DD30B1FD7F14D3
:100864001208DD750C0120B0107F141208DD30B0C1
:10087400FD7F141208DD750C0220B2107F141208DB
:10088400DD30B2FD7F141208DD750C0320B3107F38
:10089400141208DD30B3FD7F141208DD750C04AFAB
:0108A4000C47
:0108A5002230
:1008DD00AE071FEE600A7E027DEFDDFEDEFC80F0CE
:0108ED0022E8
:030000000208EE05
:0C08EE00787FE4F6D8FD75810C0208A6A6
:00000001FF
