:1004220050617373776F7264006F6B2020004572A6
:03043200726F00E6
:10014D0012040E7BFF7A0479227D017F0112039A3E
:10015D001200038F1CE51CD3940A5045C3E5199476
:10016D0004E5189400502CE51C6028AE1AAF1B7CDA
:10017D00007D0A1202558E1A8F1BE51C75F00A843C
:10018D00E5F0251BF51BE4351AF51A0519E519706F
:10019D00020518750C04AB1BAA1A7D017F02120310
:1001AD00DBE51CB40A17E4F51AF51BF518F51975FE
:1001BD000C04AB1BAA1A7D017F021203DBE51C6444
:1001CD000B7036E51BB4290DE51AB409087BFF7ACF
:1001DD0004792B80067BFF7A0479307D0D7F011227
:1001ED00039AE4F51AF51BF518F519750C04AB1BFC
:1001FD00AA1A7D017F021203DBE51C640C60030269
:10020D00015DF51AF51BF518F519750C04AB1BAA54
:0B021D001A7D017F021203DB02015D6D
:10043500AE071FEE600A7E027DEFDDFEDEFC80F07A
:010445002294
:06044600C2A58F80D2A7C1
:08044C007F027EEFDEFEDFFC03
:010454002285
:0A046100C2A6120446C2A702044C12
:1003BD00CFCDCFCECCCE1202677C007D0A12026764
:0403CD00ED2430FFEC
:0A03D100D2A6120446C2A702044C93
:1003F800AE07BE0104ED148006BE0209ED243F4499
:0604080080FF12046122D6
:10040E007F381204617F0C1204617F061204617F33
:04041E000102046172
:0A046B00AC031203F8AF040203D142
:06039A008B088A09890AA4
:1003A0001203F8E4FDAB08AA09A90A8D827583003F
:0C03B000120228FF60061203D10D80E944
:0103BC00221E
:0C0367007F0AEA24FFFDE434FFFC7E0066
:080373008E0D8F0E8C0F8D1012
:10037B007F017E00E4FBEBC39510E50F6480F874FE
:0E038B008098500AAC0DAD0E1202550B80E8A2
:010399002241
:0403DB008A0A8B0BF4
:1003DF001203F8AA0CEAD39400400D120367AC0A7B
:0803EF00AD0B1203BD1A80EDF5
:0103F70022E3
:1002BC001203F8C3EA64809480400B7F2B1203D1A5
:1002CC008A168B17800E7F2D1203D1C3E49BF51772
:1002DC00E49AF516AA15EAD39400400D120367AC04
:0902EC0016AD171203BD1A80EDD6
:0102F50022E6
:0402F6008A1F8B20B0
:1002FA001203F8AA21EAD3940040297F1012036955
:10030A00AC1FAD20CFCDCFCECCCE120267EF540FAB
:10031A00FEC3940AEE5004243080022437FF1203ED
:04032A00D11A80D193
:01032E0022AC
:04032F008A248B256C
:100333001203F8AA26EAD394004028EA24FFFDE436
:1003430034FFFC7F027E00120373AC24AD25CFCDB6
:10035300CFCECCCE120267EF54012430FF1203D16B
:030363001A80D22B
:010366002274
:10000300E4F5087590FFC2932097107F141204350E
:100013003097FD7F141204357508012096107F1464
:100023001204353096FD7F141204357508052095AA
:10003300107F141204353095FD7F141204357508B2
:10004300092094107F141204353094FD7F14120498
:100053003575080D7590FFC2922097107F14120416
:10006300353097FD7F141204357508022096107FF2
:10007300141204353096FD7F1412043575080620DA
:1000830095107F141204353095FD7F1412043575D5
:10009300080A2094107F141204353094FD7F141243
:1000A300043575080E7590FFC2912097107F1412C6
:1000B30004353097FD7F141204357508032096101C
:1000C3007F141204353096FD7F141204357508072A
:1000D3002095107F141204353095FD7F14120435DA
:1000E30075080B2094107F141204353094FD7F148F
:1000F30012043575080F7590FFC2902097107F1476
:100103001204353097FD7F141204357508042096C8
:10011300107F141204353096FD7F141204357508D0
:10012300082095107F141204353095FD7F141204B6
:100133003575080C2094107F141204353094FD7F1C
:0901430014120435750810AF0810
:01014C002290
:03000000020455A2
:0C045500787FE4F6D8FD75812602014D89
:10022800BB010CE58229F582E5833AF583E022508B
:1002380006E92582F8E622BBFE06E92582F8E222D5
:0D024800E58229F582E5833AF583E49322EF
:10025500EF8DF0A4A8F0CF8CF0A428CE8DF0A42EBD
:02026500FE2277
:10026700BC000BBE0029EF8DF084FFADF022E4CC7B
:10027700F875F008EF2FFFEE33FEEC33FCEE9DEC44
:10028700984005FCEE9DFE0FD5F0E9E4CEFD22ED8A
:10029700F8F5F0EE8420D21CFEADF075F008EF2FD4
:1002A700FFED33FD4007985006D5F0F222C398FDC5
:0502B7000FD5F0EA2262
:00000001FF
