:10021B00AE071FEE600A7E0C7DA9DDFEDEFC80F0D2
:01022B0022B0
:06022C00C2A58F80D2A7DD
:080232007F027EEFDEFEDFFC1F
:01023A0022A1
:0A024700C2A612022CC2A702023266
:10019800CFCDCFCECCCE1200427C007D0A120042D9
:0401A800ED2430FF13
:0A01AC00D2A612022CC2A7020232F2
:1001F100AE07BE0104ED148006BE0209ED243F44A2
:0602010080FF12024722FB
:100207007F381202477F0C1202477F061202477F90
:040217000102024797
:0A025100AC031201F1AF040201AC8E
:060175008B088A09890ACB
:10017B001201F1E4FDAB08AA09A90A8D827583006F
:0C018B00120003FF60061201AC0D80E9B9
:010197002245
:0C0142007F0AEA24FFFDE434FFFC7E008D
:08014E008E0D8F0E8C0F8D1039
:100156007F017E00E4FBEBC39510E50F6480F87425
:0E0166008098500AAC0DAD0E1200300B80E8F0
:010174002268
:0401D4008A0A8B0BFD
:1001D8001201F1AA0CEAD39400400D120142AC0AB4
:0801E800AD0B1201981A80ED25
:0101F00022EC
:100097001201F1C3EA64809480400B7F2B1201ACFC
:1000A7008A168B17800E7F2D1201ACC3E49BF517C0
:1000B700E49AF516AA15EAD39400400D120142AC52
:0900C70016AD171201981A80ED24
:0100D000220D
:0400D1008A1A8B1BE1
:1000D5001201F1AA1CEAD3940040297F10120144B1
:1000E500AC1AAD1BCFCDCFCECCCE120042EF540F04
:1000F500FEC3940AEE5004243080022437FF120117
:04010500AC1A80D1DF
:0101090022D3
:04010A008A1F8B209D
:10010E001201F1AA21EAD394004028EA24FFFDE46B
:10011E0034FFFC7F027E0012014EAC1FAD20CFCD0E
:10012E00CFCECCCE120042EF54012430FF1201ACE0
:03013E001A80D252
:01014100229B
:06025B0048454C4C4F0029
:1001B600120207750C027B167A007D017F0212017E
:0E01C600D47BFF7A02795B7D017F0102017517
:0300000002023BBE
:0C023B00787FE4F6D8FD7581210201B641
:10000300BB010CE58229F582E5833AF583E02250B2
:1000130006E92582F8E622BBFE06E92582F8E222FC
:0D002300E58229F582E5833AF583E4932216
:10003000EF8DF0A4A8F0CF8CF0A428CE8DF0A42EE4
:02004000FE229E
:10004200BC000BBE0029EF8DF084FFADF022E4CCA2
:10005200F875F008EF2FFFEE33FEEC33FCEE9DEC6B
:10006200984005FCEE9DFE0FD5F0E9E4CEFD22EDB1
:10007200F8F5F0EE8420D21CFEADF075F008EF2FFB
:10008200FFED33FD4007985006D5F0F222C398FDEC
:050092000FD5F0EA2289
:00000001FF
