:080AED00636C6F636B003A00BB
:10089400120A99120A6C7BFF7A0A79ED7D017F01B5
:1008A400120A0E7BFF7A0A79F37D037F02120A0E85
:1008B4007BFF7A0A79F37D067F02120A0EE524FB98
:1008C4007A00750C027D017F02120A4FE525FB7A3E
:1008D40000750C027D047F02120A4FE523FB7A00A7
:0C08E400750C027D077F02120A4F80D1C4
:03000B000208F0F8
:0408F000C0E0C0D0D4
:1008F400758A18758CFC0522C3E52294E8748094EB
:100904008340247522000523E523943C4019752374
:10091400000525E525943C400E7525000524E524B5
:070924009418400375240044
:05092B00D0D0D0E03245
:100AAD00AE071FEE600A7E027DEFDDFEDEFC80F0FC
:010ABD002216
:060ABE00C2A58F80D2A743
:080AC4007F027EEFDEFEDFFC85
:010ACC002207
:0A0AD900C2A6120ABEC2A7020AC498
:100A3100CFCDCFCECCCE12083F7C007D0A12083F2D
:040A4100ED2430FF71
:0A0A4500D2A6120ABEC2A7020AC41C
:100A8300AE07BE0104ED148006BE0209ED243F4407
:060A930080FF120AD922C7
:100A99007F38120AD97F0C120AD97F06120AD97F28
:040AA90001020AD963
:0A0AE300AC03120A83AF04020A45B7
:060A0E008B088A09890A29
:100A1400120A83E4FDAB08AA09A90A8D8275830032
:0C0A2400120800FF6006120A450D80E970
:010A300022A3
:0C09DB007F0AEA24FFFDE434FFFC7E00EC
:0809E7008E0D8F0E8C0F8D1098
:1009EF007F017E00E4FBEBC39510E50F6480F87484
:0E09FF008098500AAC0DAD0E12082D0B80E84A
:010A0D0022C6
:040A4F008A0A8B0B79
:100A5300120A83AA0CEAD39400400D1209DBAC0AF4
:080A6300AD0B120A311A80EDFF
:010A6B002268
:10093000120A83C3EA64809480400B7F2B120A451D
:100940008A168B17800E7F2D120A45C3E49BF5177C
:10095000E49AF516AA15EAD39400400D1209DBAC0F
:0909600016AD17120A311A80EDE0
:01096900226B
:04096A008A1A8B1B3F
:10096E00120A83AA1CEAD3940040297F101209DDD3
:10097E00AC1AAD1BCFCDCFCECCCE12083FEF540F5D
:10098E00FEC3940AEE5004243080022437FF120A6C
:04099E00451A80D1A5
:0109A2002232
:0409A3008A1F8B20FC
:1009A700120A83AA21EAD394004028EA24FFFDE42F
:1009B70034FFFC7F027E001209E7AC1FAD20CFCDCC
:1009C700CFCECCCE12083FEF54012430FF120A4598
:0309D7001A80D2B1
:0109DA0022FA
:100A6C005389F0438901758A18758CFCC28DD28C20
:070A7C00D2A9D2AFC2B922DA
:03000000020ACD24
:0C0ACD00787FE4F6D8FD758125020894BE
:10080000BB010CE58229F582E5833AF583E02250AD
:1008100006E92582F8E622BBFE06E92582F8E222F7
:0D082000E58229F582E5833AF583E4932211
:10082D00EF8DF0A4A8F0CF8CF0A428CE8DF0A42EDF
:02083D00FE2299
:10083F00BC000BBE0029EF8DF084FFADF022E4CC9D
:10084F00F875F008EF2FFFEE33FEEC33FCEE9DEC66
:10085F00984005FCEE9DFE0FD5F0E9E4CEFD22EDAC
:10086F00F8F5F0EE8420D21CFEADF075F008EF2FF6
:10087F00FFED33FD4007985006D5F0F222C398FDE7
:05088F000FD5F0EA2284
:00000001FF
